:020000040800F2
:1050000000500020519100081588000817880008FA
:10501000218800082B88000835880008000000005F
:105020000000000000000000000000003F880008B1
:1050300041880008000000004388000845880008F7
:10504000A5910008A5910008A5910008A98A00086B
:10505000A5910008A5910008B5880008D58800082A
:10506000F58800082989000849890008A5910008E9
:10507000A5910008A5910008A5910008118B0008D2
:10508000A5910008A591000855880008A591000881
:10509000158B0008A5910008A591000869890008F2
:1050A000A5910008A5910008A5910008318A000883
:1050B000798A0008898A0008998A0008858800088A
:1050C00095880008A5910008A5910008A58800080A
:1050D000A59100086588000875880008A59100085A
:1050E000B9890008D18A0008A591000800000000D5
:1050F00000000000000000000000000000000000B0
:0C51000000000000000000005FF808F153
:1051100010F8012B11F8013B012A28BF9A42F7D061
:10512000D01A704781F0004102E000BF83F00043D5
:1051300030B54FEA41044FEA430594EA050F08BF32
:1051400090EA020F1FBF54EA000C55EA020C7FEAF6
:10515000645C7FEA655C00F0E2804FEA5454D4EB73
:105160005555B8BF6D420CDD2C4480EA020281EA3D
:10517000030382EA000083EA010180EA020281EA75
:105180000303362D88BF30BD11F0004F4FEA0131C7
:105190004FF4801C4CEA113102D0404261EB4101D6
:1051A00013F0004F4FEA03334CEA133302D052425C
:1051B00063EB430394EA050F00F0A780A4F1010418
:1051C000D5F1200E0DDB02FA0EFC22FA05F2801852
:1051D00041F1000103FA0EF2801843FA05F3594138
:1051E0000EE0A5F120050EF1200E012A03FA0EFCB7
:1051F00028BF4CF0020C43FA05F3C01851EBE371E1
:1052000001F0004507D54FF0000EDCF1000C7EEBFD
:1052100000006EEB0101B1F5801F1BD3B1F5001F3B
:105220000CD349085FEA30004FEA3C0C04F101045A
:105230004FEA445212F5800F80F09A80BCF1004F83
:1052400008BF5FEA500C50F1000041EB045141EA05
:10525000050130BD5FEA4C0C404141EB010111F406
:10526000801FA4F10104E9D191F0000F04BF0146B1
:105270000020B1FA81F308BF2033A3F10B03B3F18F
:1052800020020CDA0C3208DD02F1140CC2F10C021F
:1052900001FA0CF021FA02F10CE002F11402D8BF7D
:1052A000C2F1200C01FA02F120FA0CFCDCBF41EA49
:1052B0000C019040E41AA2BF01EB0451294330BD18
:1052C0006FEA04041F3C1CDA0C340EDC04F11404F5
:1052D000C4F1200220FA04F001FA02F340EA0300CC
:1052E00021FA04F345EA030130BDC4F10C04C4F112
:1052F000200220FA02F001FA04F340EA03002946F2
:1053000030BD21FA04F0294630BD94F0000F83F43B
:10531000801306BF81F480110134013D4EE77FEA1E
:10532000645C18BF7FEA655C29D094EA050F08BF6A
:1053300090EA020F05D054EA000C04BF194610464B
:1053400030BD91EA030F1EBF0021002030BD5FEA8F
:10535000545C05D14000494128BF41F0004130BDB7
:1053600014F580043CBF01F5801130BD01F000450B
:1053700045F0FE4141F470014FF0000030BD7FEA7E
:10538000645C1ABF194610467FEA655C1CBF0B4679
:10539000024650EA013406BF52EA033591EA030F90
:1053A00041F4002130BD00BF90F0000F04BF002188
:1053B000704730B54FF4806404F132044FF00005BB
:1053C0004FF0000150E700BF90F0000F04BF002134
:1053D000704730B54FF4806404F1320410F000459A
:1053E00048BF40424FF000013EE700BF42004FEA95
:1053F000E2014FEA31014FEA02701FBF12F07F4312
:1054000093F07F4F81F06051704792F0000F14BF0E
:1054100093F07F4F704730B54FF4607401F0004552
:1054200021F0004120E700BF50EA010208BF7047A9
:1054300030B54FF000050AE050EA010208BF70479E
:1054400030B511F0004502D5404261EB41014FF407
:10545000806404F132045FEA915C3FF4DCAE4FF00B
:1054600003025FEADC0C18BF03325FEADC0C18BFF2
:10547000033202EBDC02C2F1200300FA03FC20FA43
:1054800002F001FA03FE40EA0E0021FA02F1144490
:10549000C1E600BF70B54FF0FF0C4CF4E06C1CEAA5
:1054A00011541DBF1CEA135594EA0C0F95EA0C0F1A
:1054B00000F0DEF82C4481EA030621EA4C5123EA8D
:1054C0004C5350EA013518BF52EA033541F48011BC
:1054D00043F4801338D0A0FB02CE4FF00005E1FB6F
:1054E00002E506F00042E0FB03E54FF00006E1FBB9
:1054F00003569CF0000F18BF4EF0010EA4F1FF04FC
:10550000B6F5007F64F5407404D25FEA4E0E6D413B
:1055100046EB060642EAC62141EA55514FEAC5204C
:1055200040EA5E504FEACE2EB4F1FD0C88BFBCF5C8
:10553000E06F1ED8BEF1004F08BF5FEA500E50F179
:10554000000041EB045170BD06F0004646EA01013F
:1055500040EA020081EA0301B4EB5C04C2BFD4EB71
:105560000C0541EA045170BD41F480114FF0000E6A
:10557000013C00F3AB8014F1360FDEBF002001F0D8
:10558000004170BDC4F10004203C35DA0C341BDC52
:1055900004F11404C4F1200500FA05F320FA04F024
:1055A00001FA05F240EA020001F0004221F0004158
:1055B00010EBD37021FA04F642EB06015EEA430ECB
:1055C00008BF20EAD37070BDC4F10C04C4F12005FB
:1055D00000FA04F320FA05F001FA04F240EA0200AE
:1055E00001F0004110EBD37041F100015EEA430E7F
:1055F00008BF20EAD37070BDC4F1200500FA05F29F
:105600004EEA020E20FA04F301FA05F243EA02031D
:1056100021FA04F001F0004121FA04F220EA02002C
:1056200000EBD3705EEA430E08BF20EAD37070BD72
:1056300094F0000F0FD101F00046400041EB010152
:1056400011F4801F08BF013CF7D041EA060195F034
:10565000000F18BF704703F00046520043EB0303EE
:1056600013F4801F08BF013DF7D043EA06037047DB
:1056700094EA0C0F0CEA135518BF95EA0C0F0CD0E6
:1056800050EA410618BF52EA4306D1D181EA03012C
:1056900001F000414FF0000070BD50EA410606BF26
:1056A0001046194652EA430619D094EA0C0F02D16B
:1056B00050EA013613D195EA0C0F05D152EA0336B0
:1056C0001CBF104619460AD181EA030101F00041CE
:1056D00041F0FE4141F470014FF0000070BD41F017
:1056E000FE4141F4780170BD70B54FF0FF0C4CF4F1
:1056F000E06C1CEA11541DBF1CEA135594EA0C0F10
:1057000095EA0C0F00F0A7F8A4EB050481EA030E5C
:1057100052EA03354FEA013100F088804FEA033343
:105720004FF0805545EA131343EA12634FEA022211
:1057300045EA111545EA10654FEA00260EF00041D2
:105740009D4208BF964244F1FD0404F5407402D224
:105750005B084FEA3202B61A65EB03055B084FEAB5
:1057600032024FF480104FF4002CB6EB020E75EBB2
:10577000030E22BFB61A754640EA0C005B084FEADA
:105780003202B6EB020E75EB030E22BFB61A754657
:1057900040EA5C005B084FEA3202B6EB020E75EBA2
:1057A000030E22BFB61A754640EA9C005B084FEA1A
:1057B0003202B6EB020E75EB030E22BFB61A754627
:1057C00040EADC0055EA060E18D04FEA051545EA16
:1057D00016754FEA06164FEAC30343EA52734FEABF
:1057E000C2025FEA1C1CC0D111F4801F0BD141EA38
:1057F00000014FF000004FF0004CB6E711F4801F9D
:1058000004BF01430020B4F1FD0C88BFBCF5E06F7C
:105810003FF6AFAEB5EB030C04BFB6EB020C5FEA8C
:10582000500C50F1000041EB045170BD0EF0004EE1
:105830004EEA113114EB5C04C2BFD4EB0C0541EA13
:10584000045170BD41F480114FF0000E013C90E610
:1058500045EA060E8DE60CEA135594EA0C0F08BFD4
:1058600095EA0C0F3FF43BAF94EA0C0F0AD150EAD3
:1058700001347FF434AF95EA0C0F7FF425AF104666
:1058800019462CE795EA0C0F06D152EA03353FF48E
:10589000FDAE1046194622E750EA410618BF52EA0B
:1058A00043067FF4C5AE50EA41047FF40DAF52EADF
:1058B00043057FF4EBAE12E74FF0FF3C06E000BF7C
:1058C0004FF0010C02E000BF4FF0010C4DF804CD89
:1058D0004FEA410C7FEA6C5C4FEA430C18BF7FEA49
:1058E0006C5C1BD001B050EA410C0CBF52EA430C77
:1058F00091EA030F02BF90EA020F0020704710F1F7
:10590000000F91EA030F58BF994208BF90422CBF85
:10591000D8176FEAE37040F0010070474FEA410C7E
:105920007FEA6C5C02D150EA013C07D14FEA430C9C
:105930007FEA6C5CD6D152EA033CD3D05DF8040B0D
:10594000704700BF8446104662468C46194663463F
:1059500000E000BF01B5FFF7B7FF002848BF10F116
:10596000000F01BD4DF808EDFFF7F4FF0CBF01205B
:1059700000205DF808FB00BF4DF808EDFFF7EAFFD7
:1059800034BF012000205DF808FB00BF4DF808ED92
:10599000FFF7E0FF94BF012000205DF808FB00BF87
:1059A0004DF808EDFFF7CEFF94BF012000205DF811
:1059B00008FB00BF4DF808EDFFF7C4FF34BF01201E
:1059C00000205DF808FB00BF4FEA410212F500120B
:1059D00015D211D56FF47873B3EB625212D94FEA36
:1059E000C12343F0004343EA505311F0004F23FA20
:1059F00002F018BF404270474FF00000704750EA75
:105A0000013005D111F0004008BF6FF00040704731
:105A10004FF00000704700BF014B0360704700BFAC
:105A20001053010810B5034B0446036000F024FC3A
:105A3000204610BD10530108F0B5012185B0054680
:105A400001F0A2FEA0F13006072E044625D8164923
:105A5000684601F01FFE2846694601F083FE0746AE
:105A6000684601F0D5FD0FB1B4B20EE00F496846AB
:105A700001F010FE2846694601F074FE05466846AE
:105A800001F0C6FD65B1263CA4B22046032100F01A
:105A9000C5FF204601F08EF804E04FF0FF3001E032
:105AA0006FF0010005B0F0BD50B3010852B301081A
:105AB000F0B5012185B0044601F066FEA0F1300684
:105AC000072E49D8684621460322072301F05EFECF
:105AD0006846264901F01CFE0546684601F098FD1F
:105AE0007DB9684621460322062301F04FFE684631
:105AF0001F4901F00DFE0746684601F089FD0FB908
:105B00002DE001251B49684601F0C4FD2046694689
:105B100001F028FE0746684601F07AFD1FB1B6B2D3
:105B20003046002110E01449684601F0B3FD2046DC
:105B3000694601F017FE0446684601F069FD8CB124
:105B40000A36B6B23046394600F068FF304629467C
:105B500000F0EAFF012007E04FF0FF3004E06FF0B3
:105B6000010001E06FF0020005B0F0BD54B3010880
:105B700059B3010850B3010852B30108F0B501212F
:105B800085B0054601F000FEA0F13006072E044660
:105B900025D81649684601F07DFD2846694601F082
:105BA000E1FD0746684601F033FD0FB1B4B20EE0E7
:105BB0000F49684601F06EFD2846694601F0D2FDA6
:105BC0000546684601F024FD65B1263CA4B2204696
:105BD000012100F023FF204601F0AEF804E04FF071
:105BE000FF3001E06FF0010005B0F0BD50B30108D7
:105BF00052B30108F0B5012189B0044601F0C4FD9B
:105C0000A0F13007072F06463ED8032268462146FA
:105C100001F0E2FD1F4904A801F03CFD204604A963
:105C200001F0A0FD054604A801F0F2FC55B1BFB299
:105C30000021384600F0F2FE684601F0D4FDC1B202
:105C4000384617E0144904A801F024FD204604A9B1
:105C500001F088FD044604A801F0DAFC74B1263E88
:105C6000B6B22946304600F0D9FE684601F0BBFDC9
:105C7000C1B2304601F0F8F8012401E06FF00104F0
:105C8000684601F0C5FC01E04FF0FF34204609B042
:105C9000F0BD00BF50B3010852B3010808B5094870
:105CA000094900F0D7FB0948094900F0D3FB09482E
:105CB000094900F0CFFBBDE808400848084900F05A
:105CC000C9BB00BF5DB30108395A000869B30108B8
:105CD000B15A000876B301087D5B000881B3010862
:105CE000F55B00087047000013B5084C00210091D7
:105CF0000A460B46204601F089FB0549054A204625
:105D000002B0BDE810400DF09BB800BF7C0400203D
:105D1000195A0008EC050020013101EB42029142C2
:105D20000BD0030F092B94BF3033373301F8013CFC
:105D30000023000101F8023BF1E770471F4B10B54B
:105D40001A88032A04D804200146188006F02CFF84
:105D50004FF000604FF4A04106F07AFE0124184B8A
:105D6000184821461C7007F033F905F0C5FE05F010
:105D7000ABFB2146402007F0EDF96FF07F4005F0C6
:105D800015FDE72005F08EFD0F4B1C7005F0E6FBBE
:105D90007D2007F003FA18B10C4B1C7007F012FAC3
:105DA00040F6B83005F034FC06F098F906F012FC25
:105DB000074A01231370074A137010BDB416002060
:105DC0009016002000043000D4140020841F00200E
:105DD000481600203E16002038B52F4C2388042B8F
:105DE00004D805210420218006F0DEFE2B4D2B78FF
:105DF00013B12B4802F0C6FA2B7853B12388052B38
:105E000005D8254B06210420198006F0CDFE02F0AE
:105E100071FB2B7863B1234B1B784BB9224B1B785A
:105E200033B1224B1B781BB9214B1B78002BE3D0DD
:105E3000204B1B78002BDFD11F4B1B78002BDBD1B5
:105E40001B4B1B78012B0FD01C4B6BB12388062BEF
:105E500005D8114B07210420198006F0A5FEFFF795
:105E60001DFF134B01221A70154B002BC4D0238841
:105E7000072B05D8084B08210420198006F094FE52
:105E8000FFF730FF2388082BB6D8034B09210420E5
:105E9000198006F089FEAFE7B416002048160020EE
:105EA000F1660008FD1500203E160020D2140020E7
:105EB00084040020D3140020841F00209D5C00086F
:105EC000E55C0008F8B5524B1A6812B11A68013A3D
:105ED0001A60504B504D1B783BB1504B1B78002B38
:105EE00028D04F4B002B47D124E04E4C2368264648
:105EF00013B12368013B0FE04B4B1B78D3B94B4BDD
:105F00001B78BBB94A4B1B78A3B94A4F3B782BB1DE
:105F1000E72005F03BFD142323600BE02B78002BDA
:105F20002DD1E72005F0ECFC434B1B78002B34D03F
:105F3000322333602B7833B1404C23781BB92EE0E9
:105F40005A6801325A603E4B1A68B2F57A7F0FD315
:105F500000221A6007F094F83A4B4FF6FF711A8846
:105F60008A4254D019800420BDE8F84006F01CBED7
:105F70001A6801321A60F8BD00F01EFCDAE7324BF5
:105F80001B78002BCDD04FF6FF7005F00FFCE720FB
:105F900005F088FC01233B70CCE76423C9E7234B61
:105FA0001B788BB1294B47F22F5259689142C7D9C0
:105FB000BFF34F8F264A274BD16801F4E0610B43B2
:105FC000D360BFF34F8FFEE7174D2B7803F0FF062A
:105FD00033B9304605F0F0FD40F6B73398420DD89E
:105FE000002005F0E9FD41F657339842ABD9002077
:105FF00005F0EAFD184B01221A70A4E7304605F0BF
:10600000E3FD2378002B9ED101232B709BE7F8BD85
:106010008C1F002070160020481600202008002049
:10602000B9670008881F002004150020D314002041
:10603000D5140020D4140020D1140020FD15002018
:10604000901F0020B4160020D214002084040020E9
:1060500000ED00E00400FA050215002008B5094B28
:10606000186005F0E1FF002006F02AF8064805F068
:106070004FFA05F0F1FF06F00FF8BDE8084007F011
:1060800087BF00BFBC020020A0860100074B1B6831
:10609000052B08D1064B1A7A012A04D1987A1B7B6A
:1060A000C01AC0B270470020704700BFB816002069
:1060B000840400200D4B10B51B68052B13D10C4C2C
:1060C000237A012B0FD16289A389D31A012B04D122
:1060D00000230320237208F0B2F8A3895A1CA2817E
:1060E0001C44A07B10BD4FF0FF3010BDB81600203F
:1060F0008404002008B50C4B1B68052B12D10B4BF8
:106100001A6D99180132B2F5807F08BF002281F81C
:1061100054001A6505F06CFE20B16420BDE808400B
:1061200005F0F6B908BD00BFB816002084040020B1
:10613000F8B5234B93F85421012A3FD0D3F85821C6
:10614000196DB2F5807F04BF0022C3F85821D3F83F
:1061500058411B4A8C4203D1002382F85431F8BDC8
:106160008CBFC4F58071C4EB0101C2F85C11D3F897
:106170005C61134D402EA2B207D94034403EC5F8B1
:106180005841C5F85C61402706E034440021B7B2AD
:10619000C5F85841C5F85C110A4801241044C021D3
:1061A0003A4683F8544107F0C5FF2046394608F0C7
:1061B000C9F82046BDE8F84008F02EB8F8BD00BF89
:1061C00084040020D8040020094B10B593E8140083
:1061D00008331B68D0180AD006490822FFF79CFD37
:1061E000204605490422BDE81040FFF795BD10BDCB
:1061F000E8F7FF1F6A0200207A02002013B5084C5E
:10620000002100910A460B46204601F0FFF805499F
:10621000054A204602B0BDE810400CF011BE00BF98
:10622000E4050020195A0008EC05002038B50446A2
:106230000D46AC4203D254F8043B9847F9E738BD09
:1062400008B507480749FFF7F1FF07480749FFF777
:10625000EDFFBDE8084006480649FFF7E7BF00BF6D
:10626000ECB80108ECB80108ECB8010848B901081D
:1062700048B9010848B901080CF03ABE08B5072032
:1062800006F0CCFAFEE70000074A08B51368184488
:106290001060064A904204D9082006F0BFFA0CF0BC
:1062A000FDFD184608BD00BF00000020004800208A
:1062B0004FF0FF3070470120704708B50C2006F002
:1062C000ADFAFEE7014B1868704700BFF0050020EB
:1062D000064B0246582000FB013101F1080303CBB5
:1062E0001060516018689060704700BFF005002092
:1062F000014BD3F864017047F0050020064B0246BD
:10630000142000FB013101F5B67303CB106051601E
:1063100018689060704700BFF005002038B505464A
:10632000064C28B105F0E4FA012384F8303238BD78
:1063300005F08CFA84F8305238BD00BFF00500201B
:106340000E4B2DE9F041D3F8647180460024BC4225
:1063500011DA14256543094E414606F5B670284406
:106360000C220CF089FF20B93544D5F86801BDE84E
:10637000F0810134EBE70020BDE8F081F00500205A
:10638000044B01221A70044B00224FF4C0201A6003
:1063900005F01ABFD314002088040020034A00230C
:1063A0001370034A136005F06DBF00BFD3140020C3
:1063B00088040020024B00221A6005F02DBF00BFA8
:1063C000880400202DE9F04788B0804668460D46D5
:1063D00001F060F91E4B0024D3F800A054452DDADB
:1063E00055B3582666431A4F414607F1080030441A
:1063F0000C2207F104090CF03FFFE8B928460CF025
:1064000033FF06F11003402834BF024640222946DC
:1064100009EB03000CF091FD3E44012386F858304F
:10642000694604A8746801F057F904A8A047044617
:1064300004A801F0EDF803E00134CFE74FF0FF349A
:10644000684601F0E5F8204608B0BDE8F08700BFD7
:10645000F00500202DE9F84F0446894600293DD07B
:1064600000283BD01E4D2E68042E37D005F10807BA
:106470004FF0000805F1040AB0450DDA57F8043C66
:106480004B4505D1384621460C220CF0F5FE28B3C9
:1064900008F101085837EFE74FF0580808FB06F8F5
:1064A00005EB080708F1100000214022C7F804900E
:1064B00050440CF066FD0AEB0800002104300C2269
:1064C0000CF05FFD2068616807F1080303C3A06852
:1064D00001361860002387F858302E60BDE8F88F29
:1064E000F005002073B5002B0CBF6523452306463D
:1064F0000D461446009331462A462346024808F0CA
:10650000D9FA02B070BD00BF2408002010B5064CB7
:10651000206803F07BFA2368013303D0431E5842FE
:10652000584110BD012010BD0400002038B50B4BB0
:1065300005461B780C466BB9094B1B7853B9FFF71E
:10654000E5FF034630B9074A29461068224604F0A1
:1065500053FA38BD4FF0FF3038BD00BFFC150020A6
:10656000FD150020040000202DE9F041264B86B0E7
:106570001B7880460F46002B41D1244B1B78002B03
:106580003DD1FFF7C3FF0446002838D1204D8DF8D8
:106590000C008DF80D008DF80E008DF80F002868A6
:1065A00006AA460902EB8606012100F01F0291406F
:1065B00056F80C2C01300A4346F80C2C41F2883274
:1065C000059204AA009203A922462346049404F0EB
:1065D000F5F8002815DD2B6806AA590902EB8101A0
:1065E00051F80C5C03F01F02154115F0010008D0B2
:1065F000184641463A46234604F080F901E04FF040
:10660000FF3006B0BDE8F081FC150020FD1500202C
:106610000400002030B51F48ADF57B7D07F0FBFE80
:10662000002834D11C4B17A805931C4B61AD069371
:106630001B4B049007931B4B0EAC08931A4B03950E
:1066400009931A4B0A931A4B0B931A4B0C931A4B40
:106650000D931A4B0E931A4B0F931A4B10931A4B20
:1066600011931A4B12931A4B13931A4B14931A4B00
:1066700015931A4B169305F04BFE284605F04EFE77
:1066800000940448164903AA05AB07F0CBFE0DF5AC
:106690007B7D30BD240800202D6500086965000859
:1066A000816300089D6300084DC30008B5630008BE
:1066B0001D630008DD6F0008B9780008C562000896
:1066C000D1620008C5630008F1620008FD6200089D
:1066D000C56900084163000829C300083DC30008DC
:1066E000E8F7FF1F014808F01BBE00BF2408002088
:1066F00030B502208DB00146112203F0A1FF051E26
:1067000028DB07A8144907F0DDFF0223ADF80C30A1
:1067100016238DF80E3033238DF80F30E0238DF8DB
:10672000103000238DF8113001238DF81230BB2377
:106730008DF81330032403AB0093102301932846F4
:1067400007A91322002304F061F9013CF3D1284684
:1067500003F0A6FF0DB030BDE8F7FF1F30B5134CB6
:1067600087B0FFF757FF204607F058FE204608F095
:106770007CFA0546FFF7BCFF03A803F033FB9DF846
:106780000D209DF80C30009204A80821084A0CF056
:1067900031FD04A93C2201230648FFF7A3FE204651
:1067A00008F0D2F9284607B030BD00BF2408002009
:1067B0008DB3010893B3010838B5114CD4F8585B78
:1067C0002DB1D4F8583B013BC4F8583B38BDD4F840
:1067D0005C3B0C4A52F8230005F010F8E72005F066
:1067E00061F86423084AC4F8583BD4F85C3B52680B
:1067F00001339342C4F85C3BA8BFC4F85C5B38BD6E
:10680000F0050020B8520108040000207FB50220E6
:106810000121062203F014FF041E24DB0223ADF83D
:10682000003000238DF8023035238DF803304FF40B
:10683000FA5008238DF804308DF805308DF80630B5
:106840008DF8073001F08EFC69461022054620467F
:1068500003F086FF0646284601F084FC204603F03C
:106860001FFF304601E04FF0FF3004B070BD000064
:1068700010B5064C2068002805DB03F011FF4FF02F
:10688000FF33236010BD002010BD00BF04000020B6
:10689000F0B5A7B0FFF7ECFF02200121062203F0BC
:1068A000CFFE324F0028386050DB314D0223A5F86F
:1068B000603B162385F8623B05A8332385F8633BCC
:1068C00005F0F2FC002300939DF814303BB1012B3E
:1068D00017D0284B01AC03F1100E224602E0069BB4
:1068E000009313E018685968264603C608337345B9
:1068F0003446F7D10FCA06AC07C424F8023B1B0C80
:1069000023700A24009B0BB9013C22D1009B0BB9D8
:10691000194B0093009B4FF4FA501A0E85F8642B24
:106920001A0C85F8652B1A0A85F8673B85F8662BE3
:1069300001F018FC114904461022386803F010FFDA
:106940000546204601F00EFC28460CE04FF0FF30D3
:1069500009E006A87E210CF0A5FC6A4681B206A8D3
:1069600003F0C4FECEE727B0F0BD00BF0400002056
:10697000F0050020AEB3010804E5D0365011002028
:106980000F4B2DE9F041D3F8647180460024BC42DE
:1069900011DA142565430A4E414606F5B6702844BF
:1069A0000C220CF069FC20B9354495F87801BDE85B
:1069B000F0810134EBE74FF0FF30BDE8F08100BF1C
:1069C000F005002008B5FFF7DBFF013808289DBF60
:1069D000024BC018007F022008BD00BFB85201085A
:1069E00037B50B4C002104F537650B4600910A467C
:1069F000284600F00BFD28460649074A0CF020FA0D
:106A000004F50D7003B0BDE8304007F0EFBC00BFE7
:106A1000F0050020195A0008EC05002014282DE983
:106A2000F34104460E4675D8FF2973D000F0B8FD37
:106A300018B1A4F10D03022B6CD900F07BFC08B156
:106A4000012C67D901F0BEF818B1A4F11203012B93
:106A500060D918236343314DEA18EF58304BB2F830
:106A600004809F4201D1042003E02E4B9F4203D1BA
:106A70000820012106F07AFBADF80480062E45D8E7
:106A8000DFE806F0040F171F27313C0010238DF8B4
:106A9000073003238DF80630182303FB045400232A
:106AA00033E004238DF80730182303FB045401233B
:106AB0002BE048238DF80730182303FB04540223EE
:106AC00023E028238DF80730182303FB0454032305
:106AD0001BE0182303228DF8073003FB04548DF8C4
:106AE0000620042311E01C238DF8073003238DF8C2
:106AF0000630182303FB0454052306E000238DF819
:106B00000730182303FB04540623A373384601A956
:106B100006F000FA02B0BDE8F08100BF0C000020D2
:106B200000080140000C0140142870B504460E46D0
:106B30003CD81F4D182303FB00539B7B5A1E022A8F
:106B400034D9062B32D0FF2B30D000F029FD20B1F4
:106B5000A4F10D03022B00D870BD00F0EBFB10B1C7
:106B6000012C00D870BD01F02DF820B1A4F1120362
:106B7000012B00D870BD182303FB04539B7B042B0F
:106B800003D120460021FFF749FF012E06D118232B
:106B90005C432A192B5992881A6170BD36B91823A3
:106BA0005C432A192B5992885A6170BD70BD00BF91
:106BB0000C000020142838B5044615D81D4D1823A4
:106BC00003FB00539B7BFF2B0ED0043B012B0BD907
:106BD00000F0E6FC18B1A4F10D03022B04D900F07B
:106BE000A9FB18B1012C01D8002038BD00F0EAFF44
:106BF00018B1A4F11203012BF6D9182303FB045397
:106C00009B7B062B07D10B4B93F8F811FF29EBD098
:106C10002046FFF703FF182254432544054BAA7B67
:106C2000A988185912B906F0C9F938BD06F0C0F99B
:106C300038BD00BF0C000020F0B54FF4004091B00B
:106C400006F060FA0120014606F084FA01214FF4B3
:106C5000C06006F08BFA334805F0CAFF324B0024BF
:106C60000593324B2F4806930A23089380230A93F7
:106C70004FF400730B934FF400630C9305A94FF48A
:106C800000530E9301254FF400274FF4602607941C
:106C900009940D940F9406F023F82548694600974F
:106CA0008DF804408DF80540029603948DF810503D
:106CB00005F0D8FE1F48694600978DF804408DF80E
:106CC0000540029603948DF8105005F0CBFE18484D
:106CD000294605F0EBFE164805F0FAFE144805F0CB
:106CE000FCFE0028FAD1124805F0FBFE104805F022
:106CF000FDFE0028FAD10F48012105F0D7FE0D480E
:106D000005F0E6FE0B4805F0E8FE0028FAD1094838
:106D100005F0E7FE074805F0E9FE0028FAD111B0BA
:106D2000F0BD00BF080002404C2401406C1100205F
:106D30000024014000280140092870B504469CBF8A
:106D400000F10A04A4B200F02BFC28B1A4F10D0359
:106D5000022B01D8002070BD00F0ECFA00F032FFE9
:106D600018B1A4F11203012BF4D9142CF2D8394D27
:106D7000182303FB04539A79FF2AEBD095F8FA11F4
:106D8000914206D09B7B2046062185F8F831FFF71B
:106D900045FE95F8FB31012B05D1FFF74DFF2D4B3B
:106DA000002283F8FB21182303FB045495F8FA31E1
:106DB000A179284E8B420FD02748012296F8F9314D
:106DC00005F0A1FE96F8F9312448A179012205F0D9
:106DD0009AFEA37986F8FA310021214C002344F869
:106DE000213001310A29F8D11E4805F0AAFF1B48BD
:106DF000012105F0D0FE1B48012105F08FFF164848
:106E0000012105F05CFE1448012105F073FE02200B
:106E100005F09AFF0028FAD0022005F0A3FF0E48E3
:106E2000002105F04CFE0F48002105F077FF0023FC
:106E30001A4654F8230054F82310013389B201EBA9
:106E400010410A2B0A44F4D11420B2FBF0F290B2A4
:106E500070BD00BF0C00002000240140002801404C
:106E60006C110020080002402DE9F043142889B07D
:106E700005460E4600F2A480534F182303FB00730F
:106E80009B68002B00F09C8000F08AFB20B1A5F1EC
:106E90000D03022B40F2948000F04CFA10B1012D4A
:106EA00040F28E8000F08EFE20B1A5F11203012B7E
:106EB00040F28680182404FB0574A37B13F0FB0FBB
:106EC0007ED1424B4BF6803808FB06F81A68404BDF
:106ED0000120B2FBF3F90146FF2398FBF3F806F01B
:106EE00045F928460421FFF799FDA36809F1FF3908
:106EF000B3F1804F1FFA89F91FFA88F802D10120F7
:106F0000014609E0334A934208BF022003D0324AC7
:106F1000934203D10420012106F034F9182404FB24
:106F2000057400264BF67F33A06801A9ADF8083040
:106F3000ADF80A60ADF80660ADF8049006F00CFA02
:106F40006023ADF81860A689ADF810300123ADF8C4
:106F50001230ADF8168046B9A06804A906F046FACA
:106F6000A068082106F082FB1FE0042E08D1A0686B
:106F700004A906F07FFAA068082106F07FFB14E060
:106F8000082E08D1A06804A906F0B8FAA068314616
:106F900006F07EFB09E00C2E07D1A06804A906F0DC
:106FA000EFFAA068082106F07BFB182303FB0575A8
:106FB0000121A86806F04EFBA868012106F027FB16
:106FC00009B0BDE8F08300BF0C000020B003002032
:106FD00000366E01000400400008004005F0F0B9E2
:106FE00013B5084C002100910A460B46204600F0DC
:106FF0000DFA0549054A204602B0BDE810400BF0E5
:107000001FBF00BF94110020195A0008EC05002092
:1070100038B5184B05461C8803F580631B88A4B25D
:107020009BB22BB94EF6EE62A21A18BF012205E000
:10703000F4B94EF6EE629B1A5A425A4192020E4B36
:1070400002F1006404F5804413449C420ED222688D
:10705000013209D1204605F041FF042809D1A01CC6
:10706000294605F03BFF38BD0434EEE7802038BDEB
:10707000AB2038BD00400008FE43000808B50848B2
:1070800005F00EFF04280AD10548002105F026FF6F
:10709000042804D1BDE80840024805F001BF08BD3E
:1070A0000040000800440008104B10B51C8803F590
:1070B00080631B88A4B29BB21CB10BB1AB2010BD86
:1070C00001240B4BA40223440A4A224493420AD9C6
:1070D0001A8892B2824204D133F8023C00200B801D
:1070E00010BD043BF0E7012010BD00BF00400008C8
:1070F000FE43000802400008F8B5444E05F090FE3B
:10710000434D34884EF6EE61A4B22B888C429BB27C
:107110004FF6FF7210D0944202D0002C73D142E09F
:107120000BB930466CE08B426DD1304605F0B8FEAD
:1071300004286AD1284632E04BBB1C461646354B24
:10714000354A1B8832F814509BB2AB4208BFA6B236
:1071500033B29C4203D10134642CF0D10FE02E4FA6
:10716000284607F1C801FFF79FFF0128F3D0284602
:10717000B7F8C810FFF74CFF0428ECD0F8BD23483F
:10718000002105F0ABFE04283FD1214838E09342AE
:1071900039D1284605F084FE042836D13046002136
:1071A00005F09CFEF8BD73B3934201D1284627E059
:1071B00016461A4B184A1B8832F814509BB2AB4241
:1071C00008BFA6B233B29C4203D10134642CF0D183
:1071D0000FE0114F284607F1C801FFF765FF0128AE
:1071E000F3D02846B7F8C810FFF712FF0428ECD0F8
:1071F000F8BD0748002105F071FE042805D10348B9
:1072000005F04EFEF8BDFFF739FFF8BD004000085D
:1072100000440008064000089C11002006440008B5
:1072200010B50446FFF768FF0023044A22F8133024
:107230000133642BF9D1204610BD00BF9C11002002
:107240000148FFF7EDBF00BF66120020024B18781F
:107250005B78C01A704700BF68120020064B5A784E
:107260001978914204D99918013288785A70704778
:107270004FF0FF30704700BF68120020044B5A786F
:107280001978914286BF9B1898784FF0FF3070476D
:107290006812002070470000014B0360704700BF78
:1072A0002853010810B5034B04460360FEF7E4FFC2
:1072B000204610BD28530108F8B5094B054693F840
:1072C0002230164653B10C468F18BC4206D02B68AC
:1072D00028469B6814F8011B9847F6E73046F8BD2E
:1072E0006812002010B50C4B012293F822408CB19B
:1072F00093F823401F2C02D94260002010BD93F860
:1073000024001C1884F82510411CC9B283F82410ED
:1073100083F82310104610BD68120020002242603E
:107320004FF47A728260014A02607047E8520108A5
:1073300070477047014B93F859007047681200205E
:1073400073B50E4C002104F164050D4E0B460091FF
:107350000A46284600F05AF86C3432460949284655
:107360000BF06EFD2046FFF7D9FF07492046324655
:1073700002B0BDE870400BF063BD00BF6812002092
:10738000EC050020195A00089972000808B5034B53
:1073900053F8203003B1984708BD00BFE412002025
:1073A00013B5084C002100910A460B46204600F018
:1073B0002DF80549054A204602B0BDE810400BF003
:1073C0003FBD00BF24130020195A0008EC0500201F
:1073D0002DE9F041002407460E4625463B19197950
:1073E0000A22304600F0AAF82E218046304600F0EE
:1073F00076F801344044032C0544EFD13046F97946
:107400000A2200F09BF82844BDE8F08130B5837172
:10741000034D9DF80C30056001714271C37130BDA0
:10742000105301080548064B06490360064A00232D
:10743000037143718371C3710BF002BD2C130020E3
:1074400010530108195A0008EC05002013B5084C28
:10745000002100910A460B462046FFF7D7FF054959
:10746000054A204602B0BDE810400BF0E9BC00BF61
:1074700034130020195A0008EC050020014B03606A
:10748000704700BF28530108F8B506460C468F1810
:107490000025BC4207D0336830469B6814F8011BB6
:1074A00098470544F5E72846F8BD000010B5034BA2
:1074B00004460360FEF7E0FE204610BD2853010895
:1074C00038B505460C46084641B10BF0CDFE2B6899
:1074D0000246DB6828462146984738BD38BD08B5C6
:1074E00003689B68984708BD30B500238BB08DF8C2
:1074F0002430012A98BF0A220DF12304B1FBF2F3D4
:1075000003FB1211CDB2092D94BF30353735EDB2E2
:10751000214604F801590BB11946EFE7FFF7D0FFF8
:107520000BB030BD10B522B90268C9B2926890475D
:1075300010BDD2B2BDE81040FFF7D6BFFFF7F2BFD3
:1075400013B5084C002100910A460B462046FFF770
:107550005DFF0549054A204602B0BDE810400BF02A
:107560006FBC00BF44130020195A0008EC0500202E
:1075700013B5084C002100910A460B462046FFF740
:1075800045FF0549054A204602B0BDE810400BF012
:1075900057BC00BF4C130020195A0008EC0500200E
:1075A000014B587D704700BF541300207047000006
:1075B00013B5084C002100910A460B462046FFF700
:1075C00025FF0549054A204602B0BDE810400BF0F2
:1075D00037BC00BF6C130020195A0008EC050020CE
:1075E00013B5084C002100910A460B462046FFF7D0
:1075F0000DFF0549054A204602B0BDE810400BF0DA
:107600001FBC00BF78130020195A0008EC050020A9
:1076100010B5044600680BF06BFC204610BD10B599
:107620000446006808B10BF063FC00232360A360EC
:10763000636010BD38B504460D46006801310BF09B
:107640007BFD10B184E82100012038BD036810B52E
:10765000044613B143688B4207D22046FFF7EAFF86
:1076600020B1A3680BB922681370012010BD70B55A
:107670000E46114604461546FFF7E8FF18B92046A6
:10768000FFF7CDFF04E0A560206831460BF0E4FD74
:10769000204670BD38B50023044603604360836014
:1076A00003730D4639B108460BF0DEFD294602464C
:1076B0002046FFF7DCFF204638BD884210B50B4658
:1076C000044607D0096819B19A68FFF7D0FF01E0B6
:1076D000FFF7A5FF204610BD10B500230446036048
:1076E000436083600373FFF7E8FF204610BD38B5A1
:1076F00005460C4641B108460BF0B6FD2146024650
:107700002846FFF7B4FF01E0FFF789FF284638BDA0
:10771000826808B50B4612B919B9012008BD11B924
:107720000368187802E00068FDF7F2FCD0F1010070
:1077300038BF002008BD10B58B688468E41AA242E7
:107740000CD8006868B1096851B110441A460BF0B2
:1077500093FDD0F1010038BF002010BD002010BD06
:10776000084610BD82688B689A4202D30022FFF758
:10777000E2BF002070478368994203D2006810B1CD
:10778000405C704700207047FFF7F5BF9A422DE933
:10779000F04107460D4614461E4601D934461646AA
:1077A00038460C49FFF776FFAB689C420FD89E42E3
:1077B00028BF1E462B68002213F806809A552968B8
:1077C00038462144FFF793FF2B6803F806803846BC
:1077D000BDE8F08178B5010810B58B680446FFF765
:1077E000D5FF204610BD006808B10BF05EBB7047A6
:1077F00013B5084C002100910A460B462046FFF7BE
:1078000005FE0549054A204602B0BDE810400BF0D0
:1078100017BB00BF80130020195A0008EC05002098
:1078200013B5084C002100910A460B462046FFF78D
:10783000EDFD0549054A204602B0BDE810400BF0B9
:10784000FFBA00BF88130020195A0008EC05002079
:1078500038B5184C94F92C305BB394F82D3043B301
:1078600005F0D8FC94F82C2094F82D5051B2002942
:1078700095FBF1F106DD01290BDC013A84F82C209F
:10788000002307E0013104DB013284F82C200223BD
:1078900000E0012394F82D20013A84F82D20C4182B
:1078A00005F0EAFC204605F0C7FCBDE8384005F0CD
:1078B000E3BC38BD9013002010B5044605F0AAFCC7
:1078C000001B00F17F02FE2A08D905F0D5FC2046F6
:1078D00005F0B2FCBDE8104005F0CEBC054A80EAD8
:1078E000E073A3EBE0735B0082F82C0082F82D308C
:1078F00010BD00BF9013002013B5084C002100916B
:107900000A460B462046FFF781FD0549054A2046F9
:1079100002B0BDE810400BF093BA00BFC0130020C6
:10792000195A0008EC05002013B5084C00210091FD
:107930000A460B462046FFF769FD0549054A2046E1
:1079400002B0BDE810400BF07BBA00BFCC130020A2
:10795000195A0008EC05002013B5084C00210091CD
:107960000A460B462046FFF751FD0549054A2046C9
:1079700002B0BDE810400BF063BA00BFD413002082
:10798000195A0008EC050020014B0360704700BF46
:1079900028530108426D836DD01A00F03F007047F4
:1079A000426D836D9A421DBF836DC018007D4FF0FC
:1079B000FF307047426D836D9A4209D0836D826DAE
:1079C00003441B7D013202F03F0282651846704776
:1079D0004FF0FF307047000010B5034B04460360C2
:1079E000FEF74AFC204610BD2853010810B5044696
:1079F000D4F89C20D4F8A0309A42F9D1237C13B952
:107A00000023237410BDD4F8A4304021186805F079
:107A100080FE0028F4D1F1E7D0F8A43070B5044618
:107A20000E46186840F2277105F079FE28B9D4F89F
:107A30009C20D4F8A0309A4215D1D4F89C5001353E
:107A400005F03F05D4F8A0309D42D4F8A43013D0FF
:107A5000EFF31082D20742D5D4F89C10D4F8A020BE
:107A6000914209D13BE0D4F8A43040F22771186864
:107A7000012205F02EFEE0E7186840F2277105F0BC
:107A80004EFE0028DED0D4F8A4308021186805F01E
:107A900040FE0028D6D0D4F8A43040F227711868F0
:107AA000002205F016FED4F8A4301868D4F8A030EF
:107AB0005A1C2344C4F8A02093F85C1005F021FE62
:107AC000D4F8A03040F2277103F03F03C4F8A0308F
:107AD000D4F8A4300122186805F0FBFDB2E7D4F811
:107AE0009C2040F22771224482F85C60C4F89C50CC
:107AF0000125186825742A4605F0EBFD284670BD5F
:107B000010B540F225510446006805F008FE70B13A
:107B1000206805F0FAFDE369C0B21A6C596C0132B5
:107B200002F03F028A4202D0196C58541A6420684D
:107B300040F2277105F0F3FDB8B1A3692068196C14
:107B40005A6C914206D1BDE8104040F227710022E4
:107B500005F0BFBD5A6C511C5964995C05F0D1FD0C
:107B6000A3695A6C02F03F025A6410BDF8B54FF495
:107B70007A7383600C4B0446002503604560C0F8AF
:107B8000A41004F15C07482614308F613246C861A6
:107B900029460BF0F6F93846294632460BF0F1F942
:107BA00025742046F8BD00BF405301080148FFF787
:107BB000A7BF00BF080200200148FFF7A1BF00BF18
:107BC00028020020014B187C704700BFDC13002006
:107BD00073B50E4C002104F114050D4E0B460091B7
:107BE0000A462846FFF712FC1C343246284609494B
:107BF0000BF026F920460849FFF7B8FF0749204651
:107C0000324602B0BDE870400BF01AB9DC13002018
:107C1000EC050020195A00080802002089790008A4
:107C200070474FF0FF307047014B0360704700BF53
:107C30002853010810B5034B04460360FEF71CFBF4
:107C4000204610BD28530108FEF734BA08B5FEF7E8
:107C50001DFA08BD08B50846FEF74CFA012008BD1C
:107C6000002242604FF47A728260014A02607047DB
:107C7000685301080846FEF7F1B9000037B50D4C0E
:107C800000210D4D0B4600910A462046FFF7BEFB32
:107C90002A460A49204608340BF0D2F82046FFF75E
:107CA000DFFF074920462A4603B0BDE830400BF00D
:107CB000C7B800BFA0140020EC050020195A000826
:107CC000297C00087047000037B50B4C00210B4D94
:107CD0000B4600910A462046FFF798FB2A462046AD
:107CE00007490BF0ADF8074904F108002A4603B034
:107CF000BDE830400BF0A4B8B8140020EC0500201B
:107D0000195A0008C57C0008002303601846704714
:107D1000002303601846704700230360184670472D
:107D20002DE9F0410B7890B004460D4616462BB174
:107D3000032A54D8DFE802F002113C3C20460BF045
:107D400093FA0123024600200093019002900390D1
:107D500004900590214603463DE008460BF084FA66
:107D600000264FEA50088DF81E60464505F10205D1
:107D700008AF0FD015F8023C07A88DF81C3015F895
:107D8000013C002110228DF81D300BF0A1FBB855ED
:107D90000136EAE720460BF067FA0023024601208D
:107DA0008DE841000293039304970593214612E066
:107DB0000BF05AFA074628460BF056FA0121182212
:107DC0001E234FF0020E8DE80E40059004953046BC
:107DD00021463A46002302F051FF044B1870034B32
:107DE00001225A7010B0BDE8F08100BFC414002019
:107DF000F8B53A4C0346A778084607F0FF06254633
:107E0000002F69D148F21007BB4246D00CDC48F283
:107E10000102934220D048F20202934225D0992BCE
:107E20005AD10123A374F8BD48F28005AB420ED0AD
:107E3000B3F5084F42D048F2400083424CD104F1E0
:107E400014000BF07AF8A36A0133A362F8BD012392
:107E5000E37023716671F8BD0123A371FFF7BEF8CB
:107E600000F5EA403030A060F8BDA37963B1FFF7B8
:107E7000B5F800F5EA403030A0604FF47F4003F0E1
:107E800095FCE72003F00EFD0023AB712B736B73A1
:107E9000AB73EB732B746B74F8BD0B7D63B9A3608C
:107EA0004FF47F4001232373237403F07FFCBDE86C
:107EB000F840E72003F0F6BC2673F8BD314601F028
:107EC00088F90121054601F0CBF9054B1B689D425D
:107ED00002D1E673A6736673F8BD00BFC414002018
:107EE00004000020F0B50022184B8DB007460E4666
:107EF0001020022101F010FF00231A46FD5A00ACA9
:107F0000144445F001012D0A0DF802106570F55A70
:107F10000233A570182B4FEA1525E57002F1040213
:107F2000ECD16B4630210422102001F0F5FE6846AA
:107F3000002130220BF025F81020014634226B4638
:107F400001F0EAFEC0B20DB0F0BD00BFC7B301083A
:107F500010B5094C04F12C0001F044FF50B994F81D
:107F60002C30012B07D194F82D00B0F11C0358429E
:107F7000584110BD002010BDC41400201FB54FF49F
:107F800061504FF461610A2200238DE80F00064B17
:107F900044F620621A60684601A902AA03AB01F008
:107FA00035FE05B05DF804FB6C1600201FB50023FC
:107FB000009301930293039301A8694602AA03ABBD
:107FC00001F0EAFD05B05DF804FB000070B500218A
:107FD0000A4C0E2001F020FF102510210E2001F088
:107FE0001BFF2A46204600210AF0CBFF29462346E4
:107FF0000E200022BDE8704001F08EBEF214002079
:1080000030B5524D00249FB0FF20EC702C716C7085
:10801000AC712C73AC746C73AC73EC732C7403F094
:10802000C5FBE72003F03EFC21462246204602F035
:1080300001FE2B46012103F82F4F0E200A4601F0C6
:108040006BFEAB79012B05D1642003F059FA01F0E6
:1080500041FAF6E710210C2001F0DEFE3C4802F068
:108060009FFA3C4802F05AFF012002F03BFF6846AD
:10807000394900F033FFEB786A78344C1A4317D152
:1080800094F83E30002B57D0FF2002F0DDFE002890
:1080900052D11A24013C06D0E72003F031FC3220F3
:1080A00003F02EFAF6E7FFF791FF85F83E40E2E78E
:1080B000E72003F0F7FB04F12E030E20012100223C
:1080C00001F0FCFDE37813B102F048FF20702B783B
:1080D0000121013385F82E300022204B0E2001F0C3
:1080E0001BFE002001240146012202F0A3FD2146CF
:1080F00022461B4B0E2085F82F4001F00DFE02F0AA
:108100001DFD642003F0FCF9002002F0E1FC85F87D
:108110003F404FF47F4000242C7403F047FBE720DE
:1081200003F0C0FB48F2042002F0AAFEFFF726FF8E
:1081300085F840401FB030BDE72003F0E1FBFA2096
:1081400003F0DEF9684600F025FF94E7C414002030
:108150008853010848020020217D0008F214002005
:10816000F3140020024B1A6818601046704700BFD5
:108170006C1600201FB5044603F09CFE03F0B8FD0A
:108180000E4B0F4900930F4B0F4A01930F4B1048B2
:108190000293104B0393104B02F082FC642003F017
:1081A000AFF9204602F094FC0C4802F0B7FE48F20A
:1081B000042004B0BDE8104002F062BEF1BD00082A
:1081C000097D000805BE0008117D000871BE000889
:1081D000F17D000899BE0008197D000848020020C2
:1081E000F8B55E4D01265E48AE7003F0DFFAE72079
:1081F00003F058FB3046FFF7BDFF05F1C10001F069
:10820000C6FD584C0023E070267185F8C7302379ED
:10821000BBB195F8C730514E022B12D806F1C803F6
:1082200002206421002201F049FD4E4B643818BF42
:108230006FF00000187196F8C730013386F8C73028
:10824000E5E701232371002385F8C7302379BBB10B
:1082500095F8C730414E022B12D806F141030B208E
:108260008021002201F02AFD3E4B803818BF6FF0BC
:108270000000187196F8C730013386F8C730E5E77B
:10828000394B95F8C770394A032F14BF17461F465C
:10829000012323712379334E33B1354800F118019E
:1082A000FFF720FE3071F5E70123337123792D4E5E
:1082B0003BB10B20802100223B4601F02DFD3071A7
:1082C000F4E7012333712379264E3BB10220642168
:1082D0000022284B01F020FD3071F4E701233371B7
:1082E00096F903301BB1012385F82C310EE095F887
:1082F000C13023F0010385F8C1302379002BF2D07F
:108300001D4801F03BFD174B1871F6E795F82C312D
:10831000124E3BB10420E188184A01F044FD86F872
:108320002C01F3E7012386F82D3195F82D710B4EC2
:108330003FB105202189124A01F035FD86F82D0153
:10834000F3E73846FFF716FFFFF702FE18B1B770E4
:10835000B078C0B2F8BD4FF0FF30F8BDC4140020B3
:108360000060FF0048020020995301080515002015
:108370001A5401088C150020851500204A54010864
:10838000A273010870B5534CC4F830010020FFF708
:10839000F1FE012384F83F3000232374FFF7D8FD5A
:1083A0000646E0B94C4D2B88052B18D0FFF718FF77
:1083B0000028F3D02B88052B88BF2E802B88013313
:1083C0002B8003F0B3FEBFF34F8F444A444BD16878
:1083D00001F4E0610B43D360BFF34F8FFEE794F8E5
:1083E000C1203C4B082A0CD193F8C22092B993F8D3
:1083F000C330282B0ED1384B1A881D46012A29D1AB
:1084000055E03AB993F8C220192A03D193F8C33042
:10841000942BEFE7334B08201A7A99785B7A84F82B
:10842000C10084F8C63000202F4B84F8C20084F8C5
:10843000C5202820012284F8C30084F8C4101A71D2
:108440001D462B79002BD6D0284801F097FC264BEF
:108450001871F6E70E2010210022254B01F02EFCAA
:10846000102824D163791B4DABB995F82E301BB978
:10847000012385F840300EE095F82F0058B90146E9
:10848000012202F0D7FB01212B4603F82F1F0E20FB
:108490000A4601F041FC63799BB90E4B93F84030DA
:1084A0007BB1FFF783FDBDE87040FFF767BDFF209C
:1084B00002F0CAFCFFF78AFD00232B8003F036FE92
:1084C000D0E74FF47F4003F071F9E72003F0EAF9B9
:1084D000E7E700BFC41400209E03002000ED00E089
:1084E0000400FA05E8F7FF1F480200208515002068
:1084F000F21400202DE9F341B14C04F0C1FD00233A
:10850000C4F8343194F838314BB994F8393133B96F
:10851000A36883B3FEF762FDA36898422BD394F857
:108520003F30A74D002B41D00026AE71AE602E73B8
:10853000C5F83C6185F83861012785F83F606E73A6
:10854000AE73EE736E7402F0F9FA6FF07F402F7421
:1085500003F02CF9E72003F0A5F9642002F0D0FF26
:1085600095F8403013B3304602F0B2FA85F83F7008
:10857000FFF746FD1AE094F83F30914DB3B96B799F
:108580002BB9FEF72BFD00F5EA403030A860002043
:1085900002F09EFA012384F83F304FF47F4000231D
:1085A000237403F003F9E72003F07CF994F84030DA
:1085B000834E13B1FFF724FD05E073791BB1337BC4
:1085C00003F0FF05FBB122797D4B012A13D11A7B01
:1085D000012A10D19B79012B0DD1032579480AF08E
:1085E00043FE013D82B27749012002F01BFA15F0EB
:1085F000FF05F3D12571237B714DE3B195F8393136
:10860000002B75D017E029462A462846B56002F0AF
:1086100011FB6D480AF028FE6C4F804638460AF080
:1086200023FE00970190791F032042462B4602F05B
:108630009BFA7571C7E794F8433123B16448002170
:108640003A220AF09EFC94F87A215D4B32B95A7BAB
:10865000002A59D19B7B002B56D1BFE01A7B02B375
:1086600093F83921EAB95A7B002A5DD019E02B46EC
:1086700003F8312F0E200121032201F04DFB0026CB
:108680004FF6FF70267403F091F8E72003F00AF923
:10869000FEF7FEF8B0424A4D66DB0123C5F83C61A7
:1086A0006B73637B464D002B00F09880AB7BBBB9AE
:1086B000FEF754F8002811D002DA4FF47F0007E0EB
:1086C000012801D1434803E0022803D14FF0FF10F5
:1086D00003F06CF8E72003F0E5F801E00123AB7349
:1086E000FEF700F8002879D1E073A073607375E09D
:1086F00095F84331002BA6D1642002F001FF05F567
:10870000A07001F0C9FA9EE7FEF7B2F800234FF41B
:108710007F40E373A373637303F048F8E72002B06C
:10872000BDE8F04103F0BEB85B7C002BA7D04FF44E
:108730007F0003F03BF8637C214D03F0FF02002B28
:1087400095D0E72003F0AEF84FF4FA7002F0D8FEAF
:10875000E72003F0B5F84FF4FA7002F0D1FE6B7C1D
:10876000013BDBB26B74E6E795F83831B3BBD5F863
:108770003C310133022BC5F83C3104BF012385F89D
:108780003831FEF743F800280CDAD4F83C310133D5
:10879000022BC4F83C3103D1094B012283F8382164
:1087A000022300E003236374637C0E2084F83130DD
:1087B0000121094B032201F0AFFA0023637370E734
:1087C000C414002052020020590200205E02002042
:1087D000041600200060FF00F514002002B0BDE880
:1087E000F08100BF13B5084C002100910A460B46EA
:1087F0002046FEF70BFE0549054A204602B0BDE8BB
:1088000010400AF01DBB00BF40160020195A000896
:10881000EC050020704708B5012003F0FFFFFEE7DC
:1088200008B5032003F0FAFFFEE708B5042003F0C3
:10883000F5FFFEE708B5052003F0F0FFFEE77047FF
:108840007047704708B503F0B3FDBDE80840FDF779
:1088500039BB000008B5024B0BB1AFF3008008BD77
:108860000000000008B5024B0BB1FFF7A5F908BDE9
:10887000B97B000808B5024B0BB1FFF797F908BDAB
:10888000AD7B000808B5024B0BB1FEF751FD08BDEA
:108890003173000808B5024B0BB1FEF74AFD08BD65
:1088A0003373000808B5024B0BB1FEF77FFE08BD1D
:1088B000AD75000808B5012004F09EFA38B101201A
:1088C00004F0A8FA024B13B10020FEF75FFD08BDCB
:1088D0008D73000808B5022004F08EFA38B102202A
:1088E00004F098FA024B13B10120FEF74FFD08BDCA
:1088F0008D73000808B5042004F07EFA78B10420D6
:1089000004F088FA0020064B0146188003F080F836
:10891000BDE8084003481021012204F092BE08BDC2
:108920008C160020002C014008B5082004F064FAE1
:1089300038B1082004F06EFA024B13B10320FEF7A1
:1089400025FD08BD8D73000808B5102004F054FA09
:1089500038B1102004F05EFA024B13B10420FEF788
:1089600015FD08BD8D73000808B5202004F044FAF9
:1089700038B1202004F04EFA0E4B13B10520FEF75B
:1089800005FD402004F038FA38B1402004F042FAE6
:10899000084B13B10620FEF7F9FC802004F02CFAF6
:1089A00038B1802004F036FA024B13B10720FEF7ED
:1089B000EDFC08BD8D73000808B54FF4005004F0BD
:1089C0001BFA40B14FF4005004F024FA174B13B1D6
:1089D0000D20FEF7DBFC4FF4804004F00DFA40B1AF
:1089E0004FF4804004F016FA104B13B10E20FEF73E
:1089F000CDFC4FF4004004F0FFF940B14FF40040CB
:108A000004F008FA094B13B10F20FEF7BFFC4FF436
:108A1000006004F0F1F938B14FF4006004F0FAF9A5
:108A2000BDE8084002F0ECBC08BD00BF8D73000833
:108A300008B50F48102104F03DFEC0B10C481021CC
:108A400004F043FE002003F0A7F828B9094B1A8868
:108A50000A3292B21A8008BD05481021002204F0A3
:108A6000F0FDBDE808400020012102F0D1BF08BDA3
:108A7000002C01408C16002008B5024B1B6803B186
:108A8000984708BD4C16002008B5024B5B6803B13F
:108A9000984708BD4C16002008B5024B9B6803B1EF
:108AA000984708BD4C16002008B5012004F0FAFBD9
:108AB00050B1012004F006FC044B0BB1FEF7C8FED8
:108AC000BDE8084004F0D8BB08BD00BF51780008DD
:108AD00008B5022004F0E6FBB0B10C4B00224FF4C5
:108AE00000301A7004F096F9012004F0F3FA10B186
:108AF000012004F0F9FA04F0BFFB022004F0E2FBCD
:108B0000BDE8084004F0B8BB08BD00BFFD1500205B
:108B100002F0ECBB00F064B838B514490B78012BB7
:108B200023D1134A13680BB90B7038BD114C402B7D
:108B3000206881B205D94030403B20601360402559
:108B400004E09DB203442360002313600A482A46D0
:108B50000844C02105F0EEFA0120294605F0F2FB99
:108B6000BDE83840012005F057BB38BDD8050020CE
:108B7000E0050020DC050020D804002008B5094BE2
:108B800001221A70084B002203201A8005F008FC0D
:108B9000064B024618804FF488710548BDE808402E
:108BA00005F0E0BA8C040020900400208E04002020
:108BB00092040020084B1B68052B0BD1074B1A6849
:108BC000052A02F1010101D01960704700221A60E4
:108BD000FDF7AEBA704700BFB81600205816002047
:108BE00070B52B4D2B4C2B682B4E9BB223802288CB
:108BF00033881340990508D54FF6FF532B60A378AF
:108C00000133DBB2A370FFF7D5FF2288338813400E
:108C10001A0401D505F0D8F92288338813405B0582
:108C200005D54FF6FF332B601C4B5B6898472288B5
:108C300033881A40900444BF4DF6FF722A602288A0
:108C40001340D90405D54EF6FF732B60002003F0C6
:108C5000A3FD2288338813401A050BD5104B1B78CF
:108C600013B103F079FD02E0022003F095FD4FF20D
:108C7000FF732B60228833881340DB0507D54FF63E
:108C8000FF632B600720BDE8704003F085BD70BD19
:108C9000445C00405C160020D01F0020C40200206D
:108CA000C4030020034B9B7A13B1034B05221A60C7
:108CB000704700BFAC1F0020B8160020014B0422F3
:108CC0001A607047B8160020034B1A78202A04BF98
:108CD00000221A70704700BF601600207047000025
:108CE000212810B508D1114B1B681B7803F07F03B6
:108CF000212B10D0022010BD2028FBD10B4B0C4A99
:108D00001B681B78107003F07F03212B094B18BFE1
:108D100000230BB9EEE7084B044A002412682046F2
:108D2000936154829847204610BD00BFCC1F00209D
:108D300060160020898D0008718D0008074B1B68A4
:108D40001B7803F07F03212B06D100F0DF000228FF
:108D50000CBF00200220704702207047CC1F00206B
:108D600021B9022834BF002002207047022070473A
:108D700020B9034B08221B681A82704701487047CC
:108D8000CC1F0020BC02002020B9034B08221B6826
:108D90001A82704701487047CC1F0020BC02002097
:108DA00010B5FDF711FA054B00241B689C7203F007
:108DB000BBFC05F00BFB024B1C6010BDCC1F002060
:108DC000B8160020334B344A1B68D27910B5002402
:108DD0005A729C72DC72204605F0D6F920464FF498
:108DE000007105F0D9F92046102105F0E3F920467D
:108DF000402105F07BFA8021204605F067FA2046E5
:108E000005F030FA254B204693F8341005F0A8FA07
:108E1000204605F014FA0120214605F0BDF9012095
:108E2000C02105F053FA0120202105F0C3F90120EB
:108E3000214605F0D8F902204FF4C06105F0ACF9E5
:108E400002204FF4807105F041FA0220214605F01E
:108E5000CAF90220202105F0ADF90320214605F0D2
:108E60009BF903204FF4887105F040FA032040215C
:108E700005F076FA03204FF4405105F0B4F90320D1
:108E8000214605F097F9204605F032F8044B0122FF
:108E90001A6010BDCC1F0020428A0108BC020020CD
:108EA000B8160020014904F01FBE00BFF4020020E4
:108EB000014904F019BE00BFFC020020054B1B68ED
:108EC000DB78042B04D8044901EBC30104F00CBE89
:108ED00000207047CC1F00200403002038B5044652
:108EE0000D46FEF7BDFE204625614FF41651FEF7F4
:108EF000C1FE204638BD70B506460D460024284602
:108F00000AF0B2F9844208D2295D3046FEF7A2FE8B
:108F1000012002F0F5FA0134F1E770BD2DE9F041CE
:108F200004460E46904600252046FEF78FFE002898
:108F3000FADD2046FEF788FE4545C1B206D1002382
:108F4000337020461249FFF7D6FF15E00D29F6D001
:108F50000A29F4D0082901D07F2904D1002DE3D0BB
:108F6000771E013D02E0771C317001352046EDB2DD
:108F7000FEF770FE3E46D7E72046FEF767FE002864
:108F800003DD2046FEF760FEF6E7BDE8F08100BF96
:108F900076B50108F0B585B00446FEF757FE002807
:108FA00040F39B802046FEF74FFEC0B2772867D182
:108FB00004F1140600212122304604F1350509F0A0
:108FC000E0FF41220021284609F0DBFF04F176078B
:108FD000002384F87630204641497B70FFF78BFFF1
:108FE000204631462022FFF799FF20463D49FFF7F2
:108FF00082FF012220463946FFF790FF94F8763031
:10900000A3F13002032AF0D8312B0BD12046364988
:10901000FFF771FF20463549FFF76DFF20463449C1
:10902000FFF769FF94F87620B2F1300708D02046A8
:109030003049FFF760FF204629464022FFF76EFFC8
:1090400020462D49FFF757FF23693A463046294607
:10905000984720462949FFF74EFF20462849FFF749
:109060004AFF20462749FFF746FF20462649FFF7DB
:1090700042FF20462549FFF73EFF2046244927E0CE
:1090800069282AD1234B01AD93E8070085E8070042
:1090900020462149FFF72FFF0026AF5D20463B0900
:1090A00003F13001392988BF03F1570107F00F0799
:1090B000FEF7D0FD07F13001392988BF07F15701CC
:1090C00020460136FEF7C6FD0C2EE6D11349204698
:1090D00005B0BDE8F040FFF70EBF05B0F0BD00BF22
:1090E000CAB30108D1B30108FEB3010834B40108C2
:1090F0005FB40108A5B40108B0B40108F3B40108D5
:1091000013B5010846B5010879B50108B8B50108DD
:10911000E9B50108E8F7FF1FFFB5010876B50108BA
:1091200013B5084C002100910A460B462046FEF775
:109130006DF90549054A204602B0BDE8104009F026
:109140007FBE00BF64160020195A0008EC050020FD
:10915000002100F004B80E4B5B58435004310D4819
:109160000D4B42189A42FFF4F6AF0C4A00F003B8D8
:10917000002342F8043B0A4B9A42FFF4F9AF03F094
:1091800059FAFCF7DBFDFDF75BF8FCF725FE7047AD
:1091900048B90108000000207C0400207C04002065
:1091A000DC1F0020FFF7FEBF0B0A017043700B0CA1
:1091B000090E8370C170043070470170090A417054
:1091C0000230704743185A78435C03EB022080B2A8
:1091D000704710B543189A78DC78415C120402EBB2
:1091E000046258780A4402EB002010BD73B544793C
:1091F0000023022C01930FD0032C19D0012C2BD16A
:10920000164D2B692E4623B12B6901A898470246BB
:10921000B8B9B16801201BE0104DEB682E4623B1B0
:10922000EB6801A89847024658B9B16802200FE0E0
:109230000A4D6B692E464BB16B6901A898470246EF
:1092400020B1A9682046BDF8043003E0B1680320CE
:109250000022134600F03CFC02B070BD1417002041
:10926000072870B518D8012916D80125854001FABC
:1092700000F0ED43094B1A68BFF35F8F05EA020463
:10928000044353E8001F914203D143E80046002EF7
:10929000F7D1BFF35F8FEDD170BD00BF4C0300204D
:1092A00070B5012186B00546FFF78CFF43040446E4
:1092B0003BD5B0F5824F38D128460521FFF782FF14
:1092C00005EB8000EE1D0024C51DAE4206D03046E1
:1092D0000221FFF777FF04360444F6E77B4BBFF328
:1092E0005F8FD3E85F0F2044C3E8510F0029F8D106
:1092F000BFF35F8F03F10C02BFF35F8F52E8000FE3
:10930000204442E800010029F8D1BFF35F8F303BD1
:10931000D96B9A6B914240F0CA8093F84020002AA2
:1093200000F0C5809B69992031E024F4FF4020F0D3
:109330007F0080B2002800F0978048F210039C4222
:1093400028D00CD8B4F5004F40F2BC8048F202039C
:109350009C4215D948F204039C4211D0B2E048F275
:1093600080039C420CD004D848F240039C424FD06A
:10937000A8E0B4F5024F03D0B4F5084F6BD0A1E0DC
:10938000534B9A69002A00F092809B692046002185
:109390000A4667E00023EA1852790DF803200133EA
:1093A000042BF8D16B7A05F10D008DF80430AB7AFF
:1093B0008DF80530EB7A8DF806302B7B8DF8073071
:1093C000002300AA1A44C15C0133042B1172F8D1A6
:1093D00005F11100002300AA1A44C15C0133042BDB
:1093E0001173F8D105F11500002300AA1A44C15CDD
:1093F0000133042B1174F8D12B798DF81430344BD0
:109400009A69002A53D09B6920466946152229E0B3
:10941000053500212846FFF7DCFE04210090284690
:10942000FFF7D7FE082101902846FFF7D2FE0C2156
:1094300002902846FFF7CDFE102103902846FFF743
:10944000C8FE234B04909A69002A30D09B692046BD
:109450006946142206E01E4B9A6942B39B69204676
:10946000691D0122984722E041F203039C4205D086
:10947000A4F580530E3B9BB2012B1AD86C1D2046DD
:109480000421FFF7A6FE39301CD12A79104B0021A8
:109490002046DA62FFF79DFE042105462046FFF7CD
:1094A00098FE393003D128460121FFF7D9FE01206B
:1094B00009E0074B1B889BB29C4204D0B4F5805F47
:1094C000F5D100E0002006B070BD00BF44170020B9
:1094D0001417002070B50E4C6688B6B2B6B160683D
:1094E00005782B1F5D425D412DB1FFF7D9FE00309D
:1094F00018BF012000E02846064618B935B194F897
:1095000041301BB90023638001F01EFE304670BD60
:10951000141700202DE9F04F85B004468A46914685
:1095200002F04EFF00250190DFF80883B8F8023002
:1095300046469BB2002B40F0938003F0A1FD02F061
:109540003FFF0290029A019BD31A0393039B002BC7
:1095500003DA019B029A13440393B54B1B68002B5B
:10956000E2D0039A9A42DFD3338841F207029BB2DA
:10957000934227D841F20602934261D240F202227E
:1095800093425DD00FD80C2B08D8082B58D2002B53
:109590004FD0062B88BF00235AD851E00D2B4CD05A
:1095A00040F201220BE041F2020293424BD8B3F5A4
:1095B000805F45D8B3F5017F3FD940F2072293423F
:1095C00037D13AE041F21102934236D014D841F239
:1095D0000B02934234D005D841F2090293422FD0B6
:1095E00031D82AE041F20F0293422CD028D841F220
:1095F0000D02934227D01CE042F2060293421CD097
:1096000007D8B3F5005F14D942F20402934221D87F
:1096100013E0B3F5804F00F0F38105D8A3F50053B4
:10962000083B012B09D904E044F20B02934200F0FD
:10963000E7810B2003F0F2F8E2E1FF232370DFE182
:109640004FF0FF3304E04FF0FF3323606360D7E156
:109650002360D5E1204600213A2209F092FCCFE1B7
:10966000D8F804603378042B40F07D810121304626
:10967000FFF7A8FD05463046FFF712FE0146002819
:1096800040F0668141F207039D4206F1050752D87A
:1096900041F206039D4280F0AC8040F202239D42DD
:1096A00000F0A78011D80C2D09D8082D80F0A180DA
:1096B000002D00F04D81062D00F2E88099E00D2D7F
:1096C00000F0948040F201237EE041F202039D42CB
:1096D00018D8B5F5805F00F28C80B5F5017F40F2B7
:1096E000858040F207239D4240F03281337938462D
:1096F00004F8013B0021FFF76CFD01462046FFF70F
:1097000053FD25E141F204039D4200F0958040F2B3
:10971000AB8000213846FFF75CFD0421206038460D
:10972000FFF757FD083444F8040C06F10D032246F8
:1097300006F11D0175E041F211039D4256D02BD870
:1097400041F20B039D4254D01CD841F209039D42C3
:109750004FD000F2968000213846FFF73AFD0421F1
:1097600020603846FFF735FD082160603846FFF776
:1097700030FD0C21A0603846FFF72BFD04F10C0BE7
:10978000E060E4E041F20F039D426DD037D841F232
:109790000D039D4250D0DBE042F205039D4200F0F4
:1097A000998007D841F212039D4235D0B5F5005F8C
:1097B0001CD8CDE042F209039D4208D842F20803CA
:1097C0009D4213D242F206039D420FD0C0E044F204
:1097D0000B039D4240F0BC80737938460121A8F804
:1097E0003030FFF7EFFCA8F83200B1E03379237096
:1097F000AEE038460021FFF7ECFC2060A8E0002135
:109800003846FFF7E6FCA3464BF8040B0421384624
:10981000FFF7DFFC60609AE03846FFF7D3FC20805A
:1098200096E053F8040B8B4242F8040BF9D18FE019
:109830006C1600201417002000213846FFF7C9FCE1
:10984000042120603846FFF7C4FC082160603846D8
:10985000FFF7BFFCE36804F1080B3933A06076D151
:109860000121FFF7FDFC72E000213846FFF7B1FC53
:10987000042120603846FFF7ACFC083444F8040C9F
:1098800066E0337923713B68236061E0002138464C
:10989000FFF79FFC042120603846FFF79AFC08215F
:1098A00060603846FFF78EFC0A21A0603846FFF75B
:1098B00089FC0C3444F8020C06F11103224606F12F
:1098C000350153F8040B8B4242F8040BF9D11B8885
:1098D00013803DE073185B79635401310429F9D199
:1098E00006F109000023C15CE2180133042B117159
:1098F000F9D106F10D000023C15CE2180133042BFD
:109900001172F9D106F111000023C15CE218013394
:10991000042B1173F9D106F115000023C15CE21884
:109920000133042B1174F9D106F119000023C15C35
:10993000E2180133062B1175F9D106F11F0000233F
:10994000C15CE2180133202B9176F9D100E05C462E
:10995000B8F800202C4B92B2954237D100221A80E1
:1099600083F8412032E0B8F836309BB273B330460A
:10997000032196F802B0FFF725FC0746BAF1000F65
:109980000CD00421701DFFF724FC0246C9F800002A
:1099900006F115015046D2B209F0CFFACBEB07071A
:1099A0007B1EB3F5806F07D20BF1050120463144D1
:1099B0003A4609F0C2FA01E04FF0FF37B9F1000F63
:1099C00001D089F800700023A8F836300023A8F8E9
:1099D000023001F0B9FB3378042B05D1B5F5805F77
:1099E00002D13046FFF702FCB8F800309BB2002BE2
:1099F0007FF49AAD044BDB8E9BB2002B7FF494ADC9
:109A0000002005B0BDE8F08F1417002007284FF0A4
:109A1000010308D803FA00F0044A126810420CBF90
:109A20000020012070471846704700BF4C030020FB
:109A3000034B1880084600210A46FFF76BBD00BFA4
:109A40001417002010B5034B0124DC86BDE810403C
:109A5000FFF760BD1417002038B5034615460122F4
:109A60004A710C46881D1946FFF7A7FB291D057092
:109A7000204601F0D3FB002038BD38B5BDF81450A6
:109A80000C462B44D518ADB202216171A071E27170
:109A9000294604F10800FFF790FB691D204689B2B2
:109AA00001F0BCFB002038BD38B513440C469DB214
:109AB00002216171A0712946E27104F10800FFF7EB
:109AC0007CFB691D204689B2BDE8384001F0A6BB89
:109AD0002DE9F84F1C4604F1020B032301F107099D
:109AE0001FFA8BFB88710D464B7148465946164646
:109AF000FFF763FBB4F57A7F824605F10B0812D8B5
:109B00002146FFF75AFB21465046FFF756FB3146E8
:109B10004046224609F011FAA11D284689B2BDE847
:109B2000F84F01F07BBB4FF47A77B4FBF7F30BEB04
:109B3000430189B2FFF741FB39465046FFF73DFB31
:109B4000314640463A4609F0F8F9A4F57A742846B9
:109B500040F2EE31A4B23E4401F060FBB4F57A7FEE
:109B600084BFA4F57A74A7B2A84688BF4FF47A746C
:109B7000314628F8054F4846224698BF002709F08D
:109B8000DCF9A11C404689B2264401F047FB0FB125
:109B90003C46E3E7BDE8F88FF7B51E46FF238DF896
:109BA0000730194B00259C68475D63190135042D6A
:109BB0005F72F9D100200D5C2318013004285D7319
:109BC000F9D10021505C6318013104295874F9D18E
:109BD00004F115000021FFF7E7FA0022B35C83547B
:109BE0000132042AFAD12146142242F20100FFF781
:109BF00033FF42F201000DF10701FFF719FF9DF954
:109C0000070003B0F0BD00BF141700202DE9F34199
:109C10001F46FF238DF807301E4B0646D3F80880F9
:109C200033680C46013B082B9CBF0A2333600B684A
:109C300008F10900013B082B9CBF0A230B60136845
:109C40001546013B082B9CBF0A2313603B68013B70
:109C5000082B9CBF0A233B603168FFF7A5FA2168F7
:109C6000FFF7A2FA2968FFF79FFA3968FFF79CFA15
:109C70004146142242F20900FFF7EEFE42F20900CB
:109C80000DF10701FFF7D4FE9DF9070002B0BDE812
:109C9000F08100BF1417002010B5074B04469968E7
:109CA00042F205000022FFF7D7FE214642F20500EE
:109CB000BDE81040FFF7BCBE141700202DE9F341AA
:109CC0001F4602ACFF2304F8053D124B86469D68F3
:109CD0000E4605F1090071469046FFF765FA3146D8
:109CE000FFF762FA4146FFF75FFA29460C2240F27D
:109CF0000120FFF7B1FE214640F20120FFF798FE58
:109D00003846002101AAFFF79DFE019802B0BDE888
:109D1000F08100BF141700202DE9F341984602ADF1
:109D20004FF0FF3345F8043D134B86469E680C46C2
:109D300006F10A0071461746FFF736FA0C21FFF7C5
:109D400033FA2146FFF730FA3946FFF72DFA41463C
:109D5000224606F11A0009F0F0F831461022A3B2AB
:109D60009020FFF7A1FE40F202202946FFF760FE97
:109D7000019802B0BDE8F0811417002008B5034631
:109D8000062001460022FFF7C7FFC0B208BD08B594
:109D90000346062001460022FFF790FF062814BF65
:109DA000FF20002008BDF8B506460D4617460C46B4
:109DB0007B192A1B1F2CC4EB030392B208D930462F
:109DC0002021FFF7A9FFC0B2203C0028F0D007E017
:109DD0002CB130462146FFF79FFFC0B2F8BD2046A8
:109DE000F8BD000013B50B4B04469968002240F201
:109DF0000720FFF731FE40F207206946FFF718FE03
:109E00009DF803309DF8000023709DF804306370C6
:109E100002B010BD1417002037B50E4A03469468EF
:109E20000D4604F109001946FFF7BEF92946FFF770
:109E3000BBF92146082240F20320FFF70DFE40F255
:109E400003200DF10701FFF7F3FD9DF8070003B0B4
:109E500030BD00BF141700202DE9F0430023CA5C79
:109E6000C2540133102BFAD10022344B467B99188F
:109E700091F801800178847B88EA01089919C97AF0
:109E800090F80CC088EA01081919CF7A417880F857
:109E900010804F40C17B47745D1895F80B90857812
:109EA000634489EA050593F80B90C378FFB289EA09
:109EB000030390F80490857488EA090890F80590E7
:109EC000EDB287EA090790F80690C37485EA0905A0
:109ED00090F80790DBB283EA090390F8089080F8C5
:109EE00014805FFA88F888EA090890F809904775A5
:109EF000FFB287EA090790F80A908575EDB285EA06
:109F0000090590F80B90C375DBB283EA09030132AF
:109F100088EA0C0C7E406C4059400A2A80F8188070
:109F200047768576C37680F81CC046778477C177FC
:109F300000F1100099D1BDE8F08300BF978A0108B5
:109F400010F0800F4FEA400018BF80F01B00C0B235
:109F5000704700002DE9F04F91F8A03090F800A074
:109F600042788AEA030A80F800A091F8A13097B0FD
:109F7000534043708278079391F8A23090F8049090
:109F800053408370C278059391F8A33046795340CB
:109F9000C370069391F8A430827989EA030980F8A6
:109FA000049091F8A53090F808805E40467191F8D1
:109FB000A630477A53408371C279089391F8A7304D
:109FC00004465340C3710C9391F8A8304FF0000B36
:109FD00088EA030880F8088091F8A9305F4047724A
:109FE000827A91F8AA30534083720993C07A91F82B
:109FF000AB3094F80CC04340E3720D9391F8AC3051
:10A0000094F80DE08CEA030C84F80CC091F8AD30A4
:10A01000A57B8EEA030E84F80DE091F8AE30E27B6A
:10A020005D40A57391F8AF305A40464BE2739A44B5
:10A030009AF80B0191F890A0994480EA0A002070E8
:10A0400099F80BA191F8949098448AEA090984F848
:10A05000049098F80B9191F898809C4489EA08083C
:10A0600084F808809CF80B8191F89CC09E4488EA93
:10A070000C0C84F80CC09EF80BC191F891E01F44C1
:10A080008CEA0E0E97F80BC191F89D701E448CEA75
:10A090000707677396F80B7191F899601D447E402D
:10A0A0006672079E0D981E4496F80B7191F89560A4
:10A0B00084F801E07E406671059E18441E4496F8BF
:10A0C0000B7191F89A607740089E1E4496F80BE158
:10A0D00091F89E608EEA0606DDF824E09E449EF824
:10A0E0000BC191F892E08CEA0E0E84F802E095F82C
:10A0F0000BE191F89650A7728EEA0505A571069DB1
:10A10000A6731D4495F80B6191F89F5075400C9E05
:10A110001E4496F80B7191F8936013447E40E670EC
:10A1200090F80B6191F897007040E07193F80B2163
:10A1300091F89B30CDF81CB05340E573E3720D46A7
:10A1400002E000BF978A0108A77894F80090103DBC
:10A1500087EA0900FFF7F4FEFFF7F2FEE67894F8CD
:10A1600001B0824686EA0B00FFF7EAFEFFF7E8FE41
:10A170002179A37980EA060880EA0B0B83EA0100C3
:10A1800003910293FFF7DCFEFFF7DAFE8AEA090982
:10A19000E6798AEA070A6779024686EA07000492A6
:10A1A000FFF7CEFEFFF7CCFE049A029B03995340C3
:10A1B000DBB294F808C00693A37A51404640C9B276
:10A1C0004740F6B283EA0C000293CDF804C0059133
:10A1D0000896FFF7B5FEFFF7B3FE617AE67A02460E
:10A1E00086EA010003910492FFF7AAFEFFF7A8FE9A
:10A1F000049ADDF804C00399029B82EA0C0C5340D8
:10A200004140C9B25FFA8CFCDBB20A91CDF824C0A0
:10A210000B9394F80CC0A37B4640F6B283EA0C0083
:10A220000293CDF804C00C96FFF78AFEFFF788FE74
:10A23000617BE67B024686EA010003910492FFF708
:10A240007FFEFFF77DFE049A029BDDF804C00399B0
:10A25000534082EA0C0C5FFA89F95FFA8BFB5FFAD4
:10A260008AFA5FFA88F84140DBB24640C9B28BEA0D
:10A2700009005FFA8CFC0F93F6B288EA0A030E918C
:10A280000293CDF834C0109683EA0006FFF758FE1B
:10A2900089EA000086EA000C5FFA8CFC84F800C0B2
:10A2A0008AEA0B00CDF804C0FFF74AFE8BEA0000F3
:10A2B000029B86EA000B5FFA8BFB184684F801B01C
:10A2C000CDF844B0FFF73CFE8AEA000086EA000AB7
:10A2D0005FFA8AFA88EA090084F802A0CDF848A05B
:10A2E000FFF72EFE88EA0000059BDDF818B0DDF8C8
:10A2F00020A04640FFB2F6B287EA03008AEA0B08C4
:10A30000E670139688EA0006FFF71AFE05994840A2
:10A310007040C0B2149020718BEA0700FFF710FE66
:10A32000784086EA0007FFB2677140461597FFF74D
:10A3300007FE8BEA0000059A7040C0B20690A0713B
:10A340008AEA0200FFF7FCFD8AEA00000B990A9BEB
:10A35000DDF824A0DDF830B04640F6B283EA0A000A
:10A360000596E6718BEA010686EA0007FFF7E8FD2D
:10A370008AEA00000A9B0B9A87EA00085FFA88F8CD
:10A3800082EA030084F80880FFF7DAFDDDF828A0F0
:10A390008AEA000087EA00095FFA89F9304684F802
:10A3A0000990FFF7CDFDDDF82CB00C998BEA000089
:10A3B000099A87EA000B5FFA8BFB81EA020084F8B6
:10A3C0000AB0FFF7BDFD0C9B0D99DDF838A0584091
:10A3D000109A47408AEA0100DDF83CA0FFB282EA09
:10A3E0000A03E77283EA000A0293FFF7A9FD0D99B9
:10A3F0000F9A48408AEA00060E99F6B282EA0100F6
:10A400002673FFF79DFD0E9A029B50408AEA0001D9
:10A41000C9B2617318460391FFF792FD0F9BDDF8F7
:10A4200034E058408AEA0002109BD2B2A27383EA59
:10A430000E000492FFF784FD109BDDF804C0584025
:10A440008AEA000A494B5FFA8AFA84F80FA003EB04
:10A450000C0090F80BC195F890001E448CEA0000A7
:10A46000207014981F44184490F80BC195F894007C
:10A470008CEA0000207103EB080090F80BC195F8FE
:10A4800098008CEA0000207295F89C0096F80B6109
:10A49000039970402073194491F80B0195F89110BD
:10A4A000049A414003EB090090F80B6195F89D0078
:10A4B0001A44704060731598184490F80B6195F831
:10A4C0009900704060721198184490F80B6195F8EB
:10A4D00095006170129970406071194491F80B01F8
:10A4E00095F89A1048400699194491F80B6195F82F
:10A4F0009E10714003EB0B0696F80BC195F8926025
:10A500008CEA0606A67092F80B6195F89620A07268
:10A510007240139EA1731E4496F80B11A271059E02
:10A5200095F89F201E4496F80B014A4095F8931029
:10A5300053444140E17095F8971097F80B01DDF80E
:10A540001CA04140E17193F80B1195F89B30AAF1E2
:10A55000100A4B401AF1900FE372E273CDF81CA081
:10A560007FF4F2AD17B0BDE8F08F00BF978A010805
:10A5700038B5054614461046FFF76EFC28462146BE
:10A58000BDE83840FFF7E6BC08B5102103460022BD
:10A590000C20FFF793FB103818BF6FF0000008BDC8
:10A5A000034610210C200022FFF7B6BB30B585B062
:10A5B000054601F005FF01901E4CE36A4BB108F01F
:10A5C00089FCE36A03600023E36208F083FC0088EF
:10A5D0002DE02846FFF71AFA10B14FF6FF7026E07B
:10A5E00001F0EEFE0290029A019BD31A0393039BA3
:10A5F000002B03DA019B029A134403930E4B039A38
:10A600001B689A42E9D2238E9BB2002BD4D00B4A0E
:10A61000591EBFF35F8FD2E85F0F984203D1C2E8A3
:10A62000541F002CF7D1BFF35F8FC5D1002000B2BB
:10A6300005B030BD141700206C1600204417002010
:10A64000F7B5174602AC4FF0FF3244F8042D134A19
:10A65000034695680E4605F109001946FEF7A4FD6C
:10A660003146FEF7A1FD3946FEF79EFD0C22294634
:10A6700041F20100FFF7F0F9214641F20100FFF736
:10A68000D7F908F027FC019B002103601846FEF76C
:10A69000E7FDBDF9040003B0F0BD00BF14170020B2
:10A6A00073B54FF0FF3302AC44F8043D0E4B054642
:10A6B0009E68294606F10900FEF776FD0422314620
:10A6C00041F20B00FFF7C8F9214641F20B00FFF7FA
:10A6D000AFF908F0FFFB019B012103602846FEF75C
:10A6E000BFFD019802B070BD14170020F7B50C46ED
:10A6F0000746164608F0EEFB4FF0FF33E62C0360EA
:10A7000025D8164B08219D6805F10900FEF74CFD80
:10A710002146FEF749FD0346191A09B2A14203DAA0
:10A720007A5C03F8012BF7E704F10802D2B229465C
:10A7300041F21000FFF790F941F210006946FFF76F
:10A7400077F908F0C7FB009B0360019B336008F0BA
:10A75000C1FB008800B203B0F0BD00BF1417002099
:10A7600037B54FF0FF320192134A034694680D4605
:10A7700004F109001946FEF717FD0821FEF714FD44
:10A780000821FEF711FD0023EA5CC2540133082BB7
:10A79000FAD11422214641F20700FFF75DF901A921
:10A7A00041F20700FFF744F908F094FB019B0360B6
:10A7B000184603B030BD00BF141700202DE9FF413B
:10A7C0001D46314B8646D3F808800F4608F1090034
:10A7D000714616460A9CFEF7E7FC1421FEF7E4FCDE
:10A7E0001421FEF7E1FC1421FEF7DEFC1421FEF734
:10A7F000DBFCD4F1010138BF0021FEF7D5FC0FB11D
:10A80000396800E03946FEF7CFFC0EB1316800E050
:10A810003146FEF7C9FC0DB1296800E02946FEF774
:10A82000C3FC74B1216839B9636841F2873293423D
:10A83000DCBF41F288336360FEF7B6FC6168FEF767
:10A84000B3FC41462C2241F20800FFF705F941F222
:10A8500008006946FFF7ECF8009B002B0ADB0FB1FC
:10A86000019838600EB1029830600DB103982860ED
:10A8700098B205E008F02EFB009B03604FF6FF70D6
:10A8800000B204B0BDE8F081141700202DE9FF41AB
:10A890009846194B86469E6815460F4606F10900F4
:10A8A00071460B9CFEF780FC2946FEF77DFC414675
:10A8B000FEF77AFCBDF8305031460C222846FFF7EF
:10A8C000CBF8284601A9FFF7B3F8029B002B0ADD5D
:10A8D00038460A996A46FFF7B5F8009B04B1236031
:10A8E000002BD8BF029308F0F5FA029B036018B260
:10A8F00004B0BDE8F08100BF141700201FB500248C
:10A900000094019441F204040294FFF7BFFF04B0E5
:10A9100010BD00002DE9F04F844689B000B2CDF89B
:10A9200008C0039115469B46139E149CFFF73EFEFC
:10A93000DDF808C0002859D12E4B812C9A6B02F10A
:10A9400001029A63D3F8089009F10A0307D0832C17
:10A950000AD105F1080A09F12208182704E009F1D3
:10A960001A0810270646129061461846FEF71CFC8E
:10A97000391FFEF719FC2946FEF716FC5946FEF76B
:10A9800013FC832C05D15146FEF70EFC0821FEF77F
:10A990000BFC4346C8EB030109B2A94204DA039A4F
:10A9A000515C03F8011BF5E7832C18460ED0129B6F
:10A9B000B6B200930196E0B249463A46ABB2FFF711
:10A9C0005CF8832C0BD141F20F000AE0191A09B28E
:10A9D000B142ECDA129A515C03F8011BF6E741F23E
:10A9E000030005A9FFF724F8BDF8180000B209B06C
:10A9F000BDE8F08F141700201FB5002400940194C7
:10AA000081240294FFF786FF04B010BD1FB5069C99
:10AA10000094079C019483240294FFF77BFF04B009
:10AA200010BD0000202A73B503460E46144627D8F1
:10AA3000164A1946956805F10900FEF7B5FB08218D
:10AA4000FEF7B2FB2146FEF7AFFB03461A1A12B21D
:10AA5000A24203DAB25C03F8012BF7E704F10C021F
:10AA60002946D2B241F21100FEF7F6FF41F2110081
:10AA70000DF10701FEF7DCFF9DF9070080B201E050
:10AA80004FF6FF7000B202B070BD00BF1417002077
:10AA9000024B01225A805860FEF71CBD141700209B
:10AAA00010B50A4CE16022616361029BE361039B84
:10AAB0002362049B6362059BA3620123A06184F867
:10AAC0004030002384F8413010BD00BF141700202F
:10AAD00070B5174B174D002406461748AC63EC635E
